:020000040000FA
:10000000D6EF01F0F76A140FF66E000EF722090022
:10001000F550120000285078F76A280FF66E000E8F
:10002000F7220900F5501200202020444D432D35C1
:10003000303436312044454D4F2020200000F76AEF
:100040004E0FF66E000EF7220900F5501200202028
:100050004F46204C45584D41524B204F5054524131
:1000600020200000F76A740FF66E000EF7220900D8
:10007000F550120020202020204C4344204D4F44B6
:10008000554C45202020202000004538006E0F0EE2
:10009000001600500038F00B006E0F0E8314001095
:1000A000836E848000D000D00000849000D000D007
:1000B000000045500F0B006E0038F00B006E0F0E65
:1000C00083140010836E848000D000D000008490E0
:1000D000850E006E002EFED7000CFC0E8314836E7E
:1000E00008C045F0D2DF000CEA6A090EE96EEF5055
:1000F0000EE0050E016E006A002EFED7012EFBD722
:100100002E0E006E002EFED700D0EF2EF2D7000C80
:10011000010E105C036AF2CF13F0F29E73DF13BE80
:10012000F28E116EFC0E83140309836E11C045F02C
:10013000ACDF10C006F0000CFC0E8314836E010EC1
:10014000456EA3DF0A0E096ECFDF010E106EE0DFF1
:10015000000CDB0E086EC1DF300E086EBEDF580EDD
:10016000086EBBDFE9DFE8EF01F041C003F040C0FB
:10017000E9FF41C0EAFFEF500B0801E22ED040C07A
:10018000E9FF41C0EAFFEF50080DF3CF43F0A00EA6
:100190004326402AD8B4412A426A425007081DE348
:1001A000FC0E83140309836E42504324446E456E53
:1001B0006CDFFC0E83140209836E41C003F040C063
:1001C000E9FF41C0EAFFEFCF44F044C045F05DDFF6
:1001D000402AD8B4412A422AE0D7000C086A096AAA
:1001E0000A6A0B6A0C6A0D6A0E6A0F6A010E106EBB
:1001F000100E116E126E136E146E156E166E176E53
:10020000020E186E180E196E1A6E1B6E1C6E1D6E85
:100210001E6E1F6E030E206E1C0E216E226E236E4C
:10022000246E256E266E276E040E286E1E0E296E15
:100230002A6E2B6E2C6E2D6E2E6E2F6E050E306E6E
:100240001F0E316E326E336E346E356E366E376E13
:10025000060E386E0E0E396E110E3A6E3B6E0E0E95
:100260003C6E040E3D6E3E6E1F0E3F6E416A080EE0
:10027000406E7BDF416A100E406E77DF416A180ED8
:10028000406E73DF416A200E406E6FDF416A280EB8
:10029000406E6BDF416A300E406E67DF416A380E98
:1002A000406E63DFE9EF01F0FC0E83140309836EF7
:1002B000036A0E50F2CF10F0F29EA4DE10BEF28E52
:1002C0000F24056E05C045F0E0DE0EC006F0000C00
:1002D000FC0E83140209836E0FC045F0D6DE052A9A
:1002E0000550140803E1020E106E12DF05502808B5
:1002F00003E1030E106E0CDF05503C0803E1040E11
:10030000106E06DF0550500803E1010E106E00DF8D
:10031000000C0F50016A0E5C03E20EC000F00CD01E
:10032000006A080E106E0E3600360F50005CD8B012
:10033000006E0136102EF7D7000C0A50640802E256
:10034000640E0A6E0AC00EF0050E0F6EE2DF01C0E9
:100350000CF00AC00EF0050E0F6EDBDF00C00DF0D2
:1003600009C00EF00F6AA0DF010E0B6E0B500C5C83
:1003700005E3F90E0F6EACDF0B2AF8D70D5205E03E
:10038000F40E0D240E6E0F6EA3DF39EF02F008C0DD
:100390000EF00F6A89DF096A0950130805E3200E81
:1003A0000F6E96DF092AF8D740EF02F0F86AD09E68
:1003B000EA6AE96AC150C00B0F09C16E070EB46E3C
:1003C000836A846A000E956E969096929694C1D632
:1003D00005D70E6A0F6A68DF640E096E85DE300E7F
:1003E000076E07507F0805E307C00FF071DF072A8B
:1003F000F8D7080E086EFA0E096E76DE082EFBD7C7
:100400009BDE0E6A0F6A50DF086A085005DE082A74
:10041000006E0F6E5DDF140E085CF7E1010E0E6ECC
:100420000F6A42DF086A08500ADE082A006E0F6E63
:100430004FDF140E085CF7E1020E0E6E0F6A34DF18
:10044000086A08500FDE082A006E0F6E41DF140E96
:10045000085CF7E10E6A0F6A27DFFA0E0F6E38DFCD
:10046000076A0750072A086E030E096E08C00AF0D3
:1004700064D70750640804E2076A030E086E87D742
:0A048000C80E096E31DEEDD703004F
:020000040030CA
:0E00000000021E1E008381000FC00FE00F40A3
:00000001FF
;PIC18F4620
